:020000040800F2
:1000000000000220D9320008892100088B21000855
:100010008D2100088F2100089121000800000000B8
:100020000000000000000000000000009321000814
:10003000952100080000000097210008351E0008E7
:100040002933000829330008293300082933000820
:1000500029330008293300088D1E0008A51E00085A
:100060002933000829330008293300082933000800
:1000700029330008293300082933000829330008F0
:1000800029330008293300082933000829330008E0
:1000900029330008293300082933000829330008D0
:1000A00029330008293300082933000829330008C0
:1000B00029330008293300082933000829330008B0
:1000C00029330008293300082933000829330008A0
:1000D0002933000829330008992100082933000832
:1000E0002933000829330008293300082933000880
:1000F0002933000829330008293300082933000870
:10010000293300082933000829330008293300085F
:10011000293300082933000829330008293300084F
:10012000293300082933000829330008293300083F
:10013000293300082933000829330008293300082F
:10014000293300082933000829330008293300081F
:10015000293300082933000829330008293300080F
:1001600029330008293300082933000829330008FF
:100170002933000829330008293300080000000053
:080180002933000829330008AF
:1001880081F0004102E000BF83F0004330B54FEA40
:1001980041044FEA430594EA050F08BF90EA020FAD
:1001A8001FBF54EA000C55EA020C7FEA645C7FEA40
:1001B800655C00F0E2804FEA5454D4EB5555B8BF63
:1001C8006D420CDD2C4480EA020281EA030382EAD4
:1001D800000083EA010180EA020281EA0303362D66
:1001E80088BF30BD11F0004F4FEA01314FF4801C39
:1001F8004CEA113102D0404261EB410113F0004F4B
:100208004FEA03334CEA133302D0524263EB430301
:1002180094EA050F00F0A780A4F10104D5F1200E9F
:100228000DDB02FA0EFC22FA05F2801841F10001FA
:1002380003FA0EF2801843FA05F359410EE0A5F1CE
:1002480020050EF1200E012A03FA0EFC28BF4CF0FF
:10025800020C43FA05F3C01851EBE37101F00045B5
:1002680007D54FF0000EDCF1000C7EEB00006EEBC2
:100278000101B1F5801F1BD3B1F5001F0CD349084C
:100288005FEA30004FEA3C0C04F101044FEA4452A3
:1002980012F5800F80F09A80BCF1004F08BF5FEA2A
:1002A800500C50F1000041EB045141EA050130BD0A
:1002B8005FEA4C0C404141EB0101013C28BFB1F51C
:1002C800801FE9D291F0000F04BF01460020B1FA67
:1002D80081F308BF2033A3F10B03B3F120020CDA3A
:1002E8000C3208DD02F1140CC2F10C0201FA0CF018
:1002F80021FA02F10CE002F11402D8BFC2F1200C7D
:1003080001FA02F120FA0CFCDCBF41EA0C01904032
:10031800E41AA2BF01EB0451294330BD6FEA04047B
:100328001F3C1CDA0C340EDC04F11404C4F1200266
:1003380020FA04F001FA02F340EA030021FA04F378
:1003480045EA030130BDC4F10C04C4F1200220FACF
:1003580002F001FA04F340EA0300294630BD21FA0D
:1003680004F0294630BD94F0000F83F4801306BFD3
:1003780081F480110134013D4EE77FEA645C18BFC7
:100388007FEA655C29D094EA050F08BF90EA020F5E
:1003980005D054EA000C04BF1946104630BD91EA56
:1003A800030F1EBF0021002030BD5FEA545C05D159
:1003B8004000494128BF41F0004130BD14F5800498
:1003C8003CBF01F5801130BD01F0004545F0FE410C
:1003D80041F470014FF0000030BD7FEA645C1ABF41
:1003E800194610467FEA655C1CBF0B46024650EA78
:1003F800013406BF52EA033591EA030F41F40021A4
:1004080030BD00BF90F0000F04BF0021704730B529
:100418004FF4806404F132044FF000054FF00001FE
:1004280050E700BF90F0000F04BF0021704730B5BF
:100438004FF4806404F1320410F0004548BF404294
:100448004FF000013EE700BF42004FEAE2014FEAE9
:1004580031014FEA02701FBF12F07F4393F07F4FC4
:1004680081F06051704732F07F4208BF704793F0C7
:100478007F4F04BF41F40021704730B54FF46074DA
:1004880001F0004521F000411CE700BF50EA0102DD
:1004980008BF704730B54FF000050AE050EA010286
:1004A80008BF704730B511F0004502D5404261EBF6
:1004B80041014FF4806404F132045FEA915C3FF437
:1004C800D8AE4FF003025FEADC0C18BF03325FEAD4
:1004D800DC0C18BF033202EBDC02C2F1200300FA85
:1004E80003FC20FA02F001FA03FE40EA0E0021FAAA
:1004F80002F11444BDE600BF70B54FF0FF0C4CF498
:10050800E06C1CEA11541DBF1CEA135594EA0C0F49
:1005180095EA0C0F00F0DEF82C4481EA030621EA84
:100528004C5123EA4C5350EA013518BF52EA0335BF
:1005380041F4801143F4801338D0A0FB02CE4FF071
:100548000005E1FB02E506F00042E0FB03E54FF0A1
:100558000006E1FB03569CF0000F18BF4EF0010E99
:10056800A4F1FF04B6F5007F64F5407404D25FEA95
:100578004E0E6D4146EB060642EAC62141EA555148
:100588004FEAC52040EA5E504FEACE2EB4F1FD0C8A
:1005980088BFBCF5E06F1ED8BEF1004F08BF5FEA08
:1005A800500E50F1000041EB045170BD06F00046BA
:1005B80046EA010140EA020081EA0301B4EB5C0467
:1005C800C2BFD4EB0C0541EA045170BD41F480115F
:1005D8004FF0000E013C00F3AB8014F1360FDEBF84
:1005E800002001F0004170BDC4F10004203C35DA60
:1005F8000C341BDC04F11404C4F1200500FA05F3E3
:1006080020FA04F001FA05F240EA020001F0004283
:1006180021F0004110EBD37021FA04F642EB0601F9
:100628005EEA430E08BF20EAD37070BDC4F10C0423
:10063800C4F1200500FA04F320FA05F001FA04F2E7
:1006480040EA020001F0004110EBD37041F10001D3
:100658005EEA430E08BF20EAD37070BDC4F12005DE
:1006680000FA05F24EEA020E20FA04F301FA05F246
:1006780043EA020321FA04F001F0004121FA04F2EE
:1006880020EA020000EBD3705EEA430E08BF20EABE
:10069800D37070BD94F0000F0FD101F000464000F8
:1006A80041EB010111F4801F08BF013CF7D041EA7A
:1006B800060195F0000F18BF704703F0004652007E
:1006C80043EB030313F4801F08BF013DF7D043EA4F
:1006D8000603704794EA0C0F0CEA135518BF95EA05
:1006E8000C0F0CD050EA410618BF52EA4306D1D18C
:1006F80081EA030101F000414FF0000070BD50EAAB
:10070800410606BF1046194652EA430619D094EA34
:100718000C0F02D150EA013613D195EA0C0F05D11E
:1007280052EA03361CBF104619460AD181EA030172
:1007380001F0004141F0FE4141F470014FF000002A
:1007480070BD41F0FE4141F4780170BD70B54FF0C5
:10075800FF0C4CF4E06C1CEA11541DBF1CEA135545
:1007680094EA0C0F95EA0C0F00F0A7F8A4EB050427
:1007780081EA030E52EA03354FEA013100F088801E
:100788004FEA03334FF0805545EA131343EA1263E7
:100798004FEA022245EA111545EA10654FEA00269C
:1007A8000EF000419D4208BF964244F1FD0404F555
:1007B800407402D25B084FEA3202B61A65EB0305B1
:1007C8005B084FEA32024FF480104FF4002CB6EB6E
:1007D800020E75EB030E22BFB61A754640EA0C00EE
:1007E8005B084FEA3202B6EB020E75EB030E22BF2E
:1007F800B61A754640EA5C005B084FEA3202B6EB6F
:10080800020E75EB030E22BFB61A754640EA9C002D
:100818005B084FEA3202B6EB020E75EB030E22BFFD
:10082800B61A754640EADC0055EA060E18D04FEABB
:10083800051545EA16754FEA06164FEAC30343EA5B
:1008480052734FEAC2025FEA1C1CC0D111F4801F28
:100858000BD141EA00014FF000004FF0004CB6E721
:1008680011F4801F04BF01430020B4F1FD0C88BFC0
:10087800BCF5E06F3FF6AFAEB5EB030C04BFB6EBCB
:10088800020C5FEA500C50F1000041EB045170BDBE
:100898000EF0004E4EEA113114EB5C04C2BFD4EBEB
:1008A8000C0541EA045170BD41F480114FF0000E6F
:1008B800013C90E645EA060E8DE60CEA135594EAEB
:1008C8000C0F08BF95EA0C0F3FF43BAF94EA0C0FEE
:1008D8000AD150EA01347FF434AF95EA0C0F7FF463
:1008E80025AF104619462CE795EA0C0F06D152EAB7
:1008F80003353FF4FDAE1046194622E750EA41069B
:1009080018BF52EA43067FF4C5AE50EA41047FF4AB
:100918000DAF52EA43057FF4EBAE12E74FF0FF3C10
:1009280006E000BF4FF0010C02E000BF4FF0010CE1
:100938004DF804CD4FEA410C7FEA6C5C4FEA430C5A
:1009480018BF7FEA6C5C1BD001B050EA410C0CBFA9
:1009580052EA430C91EA030F02BF90EA020F00200B
:10096800704710F1000F91EA030F58BF994208BF72
:1009780090422CBFD8176FEAE37040F0010070472F
:100988004FEA410C7FEA6C5C02D150EA013C07D186
:100998004FEA430C7FEA6C5CD6D152EA033CD3D0D1
:1009A8005DF8040B704700BF8446104662468C46CB
:1009B8001946634600E000BF01B5FFF7B7FF0028FE
:1009C80048BF10F1000F01BD4DF808EDFFF7F4FF27
:1009D8000CBF012000205DF808FB00BF4DF808EDB2
:1009E800FFF7EAFF34BF012000205DF808FB00BFD5
:1009F8004DF808EDFFF7E0FF94BF012000205DF8F7
:100A080008FB00BF4DF808EDFFF7CEFF94BF0120AB
:100A180000205DF808FB00BF4DF808EDFFF7C4FFA4
:100A280034BF012000205DF808FB00BF4FEA4102F7
:100A3800B2F1E04324BFB3F5001CDCF1FE5C0DD934
:100A480001F0004C4FEAC0024CEA5070B2F1004F7E
:100A580040EB830008BF20F00100704711F0804F81
:100A680021D113F13872BCBF01F00040704741F446
:100A780080114FEA5252C2F11802C2F1200C10FA4A
:100A88000CF320FA02F018BF40F001004FEAC1232E
:100A98004FEAD32303FA0CFC40EA0C0023FA02F3D2
:100AA8004FEA4303CCE77FEA625307D150EA0133A8
:100AB8001EBF4FF0FE4040F44000704701F0004078
:100AC80040F0FE4040F40000704700BF80F0004056
:100AD80002E000BF81F0004142001FBF5FEA41030E
:100AE80092EA030F7FEA226C7FEA236C6AD04FEA0E
:100AF8001262D2EB1363C1BFD21841404840414053
:100B0800B8BF5B42192B88BF704710F0004F40F404
:100B1800000020F07F4018BF404211F0004F41F420
:100B2800000121F07F4118BF494292EA030F3FD0EC
:100B3800A2F1010241FA03FC10EB0C00C3F12003FF
:100B480001FA03F100F0004302D5494260EB40008E
:100B5800B0F5000F13D3B0F1807F06D340084FEAF9
:100B6800310102F10102FE2A51D2B1F1004F40EBEE
:100B7800C25008BF20F0010040EA03007047490056
:100B880040EB0000013A28BFB0F5000FEDD2B0FAF3
:100B980080FCACF1080CB2EB0C0200FA0CF0AABF16
:100BA80000EBC25052421843BCBFD04018437047B4
:100BB80092F0000F81F4000106BF80F400000132BA
:100BC800013BB5E74FEA41037FEA226C18BF7FEA91
:100BD800236C21D092EA030F04D092F0000F08BFD3
:100BE8000846704790EA010F1CBF0020704712F0BA
:100BF8007F4F04D1400028BF40F00040704712F1F9
:100C080000723CBF00F50000704700F0004343F05D
:100C1800FE4040F4000070477FEA226216BF084693
:100C28007FEA23630146420206BF5FEA412390EA56
:100C3800010F40F4800070474FF0000304E000BF4C
:100C480010F0004348BF40425FEA000C08BF7047FD
:100C580043F0964301464FF000001CE050EA0102C1
:100C680008BF70474FF000030AE000BF50EA0102D6
:100C780008BF704711F0004302D5404261EB4101C3
:100C88005FEA010C02BF84460146002043F0B643E8
:100C980008BFA3F18053A3F50003BCFA8CF2083A0D
:100CA800A3EBC25310DB01FA02FC634400FA02FC16
:100CB800C2F12002BCF1004F20FA02F243EB02001D
:100CC80008BF20F00100704702F1200201FA02FC7F
:100CD800C2F1200250EA4C0021FA02F243EB020072
:100CE80008BF20EADC70704753B94AB9002908BF29
:100CF80000281CBF4FF0FF314FF0FF3000F0E2B882
:100D0800ADF1080C6DE904CE02F070FCDDF804E0EA
:100D1800DDE9022304B0704700F1340191E838009E
:100D28009C46A6464CF8045D90E8FF0FE54600BDDA
:100D380090EC210B704700BF80EC210B704700BF7F
:100D480090EC200B704700BF80EC200B704700BF71
:100D5800D0EC200B704700BFC0EC200B704700BFE1
:100D6800F0EC0201F0EC0211F0EC0221F0EC02319F
:100D7800F0EC0241F0EC0251F0EC0261F0EC02718F
:100D8800F0EC0281F0EC0291F0EC02A1F0EC02B17F
:100D9800F0EC02C1F0EC02D1F0EC02E1F0EC02F16F
:100DA800704700BFE0EC0201E0EC0211E0EC022128
:100DB800E0EC0231E0EC0241E0EC0251E0EC0261CF
:100DC800E0EC0271E0EC0281E0EC0291E0EC02A1BF
:100DD800E0EC02B1E0EC02C1E0EC02D1E0EC02E1AF
:100DE800E0EC02F1704700BFB0FC0181B0FC01915A
:100DF800B0FC01A1B0FC01B1704700BFA0FC0181AB
:100E0800A0FC0191A0FC01A1A0FC01B1704700BFAA
:100E1800EC4600B52DE900502DE9FF1F4FF0000307
:100E28002DE90C0001A902F09BFEDDF840E012B0AC
:100E3800704700BFEC4600B52DE900502DE9FF1FB3
:100E48004FF000032DE90C0001A902F0C5FEDDF802
:100E580040E012B0704700BFEC4600B52DE90050E5
:100E68002DE9FF1F4FF000032DE90C0001A902F046
:100E7800D5FEDDF840E012B0704700BFEC4600B583
:100E88002DE900502DE9FF1F4FF000032DE90C005C
:100E980001AB02F099FEDDF840E012B0704700BFE8
:100EA800EC4600B52DE900502DE9FF1F4FF0000377
:100EB8002DE90C0001AA02F005FFDDF840E012B0B0
:100EC800704700BF704700BF844641EA000313F033
:100ED80003036DD1403A41D351F8043B40F8043B39
:100EE80051F8043B40F8043B51F8043B40F8043BFC
:100EF80051F8043B40F8043B51F8043B40F8043BEC
:100F080051F8043B40F8043B51F8043B40F8043BDB
:100F180051F8043B40F8043B51F8043B40F8043BCB
:100F280051F8043B40F8043B51F8043B40F8043BBB
:100F380051F8043B40F8043B51F8043B40F8043BAB
:100F480051F8043B40F8043B51F8043B40F8043B9B
:100F580051F8043B40F8043B403ABDD2303211D33B
:100F680051F8043B40F8043B51F8043B40F8043B7B
:100F780051F8043B40F8043B51F8043B40F8043B6B
:100F8800103AEDD20C3205D351F8043B40F8043B3B
:100F9800043AF9D2043208D0D2071CBF11F8013B39
:100FA80000F8013B01D30B8803806046704700BFFF
:100FB800082A13D38B078DD010F003038AD0C3F10E
:100FC8000403D21ADB071CBF11F8013B00F8013BF0
:100FD80080D331F8023B20F8023B7BE7043AD9D3AF
:100FE800013A11F8013B00F8013BF9D20B78037084
:100FF8004B7843708B7883706046704710B5054C0A
:10100800237833B9044B13B10448AFF300800123AC
:10101800237010BD50040020000000003446000872
:1010280008B5034B1BB103490348AFF3008008BD63
:10103800000000005404002034460008034B83EDF0
:10104800000A034BC3ED000A704700BF00000020F0
:101058006C040020D0ED017A074B93ED007AF4EE92
:10106800C77AF1EE10FA01DD77EEC77A034B93EDFC
:10107800000A27EE800A70476C0400200000002058
:10108800B5EE400AF1EE10FA09D010EE103AA3F5C9
:1010980000035B0803F1005300EE103A70479FED20
:1010A800010A704700000000024A53680344536075
:1010B800704700BF70040020024B1880024B83ED7C
:1010C800000A7047240500200C050020014B00226F
:1010D8005A6070477004002038B5064C0025A4F803
:1010E8009050A4F88C5002232380FFF7EFFFA4F858
:1010F800905038BD700400202DE9F0412DED048B8F
:10110800F0EE408A10EE905AB0EE419A61EE007A05
:101118001D4BC3ED027AC1EE219AB0EE408A00243D
:1011280028E089EE080A39EE800AFFF7A9FF10EED9
:10113800108A2846FFF788F911A3D3E90023FFF79F
:1011480025F806460F464046FFF77EF932463B46ED
:10115800FFF7D2F9FFF76AFC07EE900A68EEA77A64
:10116800A21C094B03EB8203C3ED017A38EE288AEF
:101178000134E4B20F2CD4D9BDEC048BBDE8F08166
:101188009A9999999999B93F7004002010B53B4BE9
:101198001B8873B3012B65D1394A138801339BB27D
:1011A8001380002B69D0134600221A80334C94F820
:1011B8008E306268123304EB83035A60FFF786FFB0
:1011C80094F88E300133DBB284F88E3003F00F03CD
:1011D80084F88E30B4F89030002B4ED1B4F88C30AF
:1011E800591CA4F88C10102B47D90122A4F8902080
:1011F80043E0224AB2F88C3001339BB2A2F88C301B
:10120800204A1288934238D907EE903AF8EE671AC6
:101218001A4CC4ED261AB5EE000A61EE801AC4ED28
:10122800261AD4ED017AF8EE677AC4ED257A87EEAE
:10123800A11A84ED251A144BD3ED000AFFF75CFFC1
:101248002388D3B9FFF742FF012323800023A4F8A2
:101258008C30A4F8903084F88F3084F88E30084AA7
:1012680013800AE0054A0023A2F890301380A2F800
:101278008C30034A1380FFF729FF10BD700400204B
:1012880028050020240500200C050020F0B50122C7
:10129800404B1A800023404C2360404C23604FF69B
:1012A800FF7E0026354633460FE0F7EE006A4CE035
:1012B800384CB4F800C00CF1010CA4F800C04FEA97
:1012C8005E0E520092B20133DBB20F2B5DD81F467F
:1012D80003F1120C324C04EB8C0CDCF8044025446E
:1012E8001EF0010FE4D0042DE2D907EE905AB8EEB3
:1012F800677A2C4C84ED007ADFF898C0BCF800C0FF
:1013080006EE90CAF8EEE66AC7EE267AC4ED007AD1
:10131800234C94ED027AF4EEC77AF1EE10FAC7DDA9
:1013280077EEC77A1F4CC4ED007A02371C4C04EBE9
:10133800870797ED017A1C4C84ED007A782DB4D894
:101348001A4C04EB8504D4ED006A27EE267A164C75
:1013580084ED007AF4EEC77AF1EE10FAA8DD1643B0
:1013680016F0080FA4D00C4CC4ED007AC7EE876ABB
:10137800C4ED006A094CD4ED007AF4EEE76AF1EEA8
:1013880010FA95DDC4ED006A92E7044B1B680B6008
:101398000680F0BD1C050020100500201405002063
:1013A8007004002020050020180500204C46000885
:1013B800002303804FF07E530B60174BB3F8903037
:1013C8002BB370B582B005460C46134B93F88F20AB
:1013D80093F88E309A421CD00F4A82F88F300F4E05
:1013E80001A93046FFF752FF3388DDED017AB7EEE9
:1013F800007AF4EEC77AF1EE10FA05DD2B80C4ED21
:10140800007A012002B070BDF0EE477AF6E70020BE
:1014180070470020F6E700BF700400202605002072
:1014280008B52DED028B07EE900AB0EE608AF8EE53
:10143800677AB1EE007A67EE877AFCEEE77A17EE04
:10144800903A98B2FFF738FEB0EE480A00F080F8FC
:10145800FFF742FEBDEC028B08BD000010B5044644
:1014680044F62062002300F0ABF8012000F0F6F902
:101478002046FFF719FEFFF789FE024B01221A806A
:1014880010BD00BF3205002070B582B004460023AD
:10149800ADF802301A4D1B4E2946304600F080FA4E
:1014A800336863602B782372174B1B88012B01D09C
:1014B80002B070BD144B00221A8001A90DF1020080
:1014C800FFF776FFB8B1237803F0FD032370BDF86A
:1014D800022052B143F001032370DDED017AFCEEE6
:1014E800E77A17EE903A6370E2E723F0010323707E
:1014F80000236370DCE7237843F002032370D7E707
:10150800300500202C0500203205002000000000D6
:10151800002303609FED0C7B80ED027B914212D08B
:1015280030B40C680368234403608368C4688D681A
:101538005B19CD6845EB04048360C46010319142A7
:10154800EFD130BC70477047000000000000000079
:10155800094B83ED000AB5EE400AF1EE10FA03D10B
:10156800064B00221A607047B7EE007AC7EE007A81
:10157800024BC3ED007A7047E0070020E407002023
:101588000D4BD3ED007AF5EE407AF1EE10FA12D059
:10159800F4EEC07AF1EE10FA02D520EE270A704771
:1015A800064BD3ED007A20EE277AF7EE007A77EE35
:1015B800C77A80EE270A7047E4070020E00700207A
:1015C80070B588B00490CDE9062300260096002265
:1015D8000023CDE902233C4C22E06D4604F13003A0
:1015E8000FCB85E80F003022214604F1100001F0EE
:1015F800BDFE0DF1100C9CE80F0084E80F00334B82
:1016080001229A5595E80F008CE80F0004F1400577
:101618002F4B1B689D421ED80136072E1FD82C461B
:10162800002EDAD0294B9B5D032BD6D8002BD4D0C3
:101638002368049A13442360069AA368E1689B18F8
:10164800079A42EB0102A360E260204A935D0133EE
:101658009355254603E010331D4A136025461C4B5D
:101668001C68AC4201D3082E01D008B070BD174BDE
:101678009B5D013BDBB2022B11D82B68049A134403
:101688002B600699AB68E8685B18079A42EB000282
:10169800AB60EA600D4A935D01339355E5E770222C
:1016A800294605F1100001F061FE08AB13E90F00AF
:1016B80085E80F00054B01229A55064B9C42D4D071
:1016C8001034034B1C60D0E760050020540500204F
:1016D80004000020E0070020B5EE400AF1EE10FA01
:1016E80009D010EE103AA3F500035B0803F100538C
:1016F80000EE103A70479FED010A704700000000A5
:10170800036833B310B52DED028B044601EBC1011C
:10171800144A11440A7A08EE902AF8EEE88A07EE8D
:10172800903AB8EE678AB0EE480AFFF7D5FF68EE40
:10173800808AB4EEE88AF1EE10FA0DD9D4E90201F4
:10174800FFF78CFA07EE900A38EE688A87EE880A67
:1017580004E09FED050A70479FED030ABDEC028B7C
:1017680010BD00BF304800080000805F70B52DED47
:10177800028B05460E461446C2F303120368184648
:10178800072B28BF072002EBC20233490A44125C28
:1017980008EE102AF8EE488A002B3CD1B7EE008AF2
:1017A80038EE888AD5E90201FFF758FA07EE900A61
:1017B800C7EE888A21463046FFF7A2FFB4EEE80A52
:1017C800F1EE10FA41D4C4F3031233681846072B1C
:1017D80028BF072002EBC2021F490A44125C08EE28
:1017E800102AF8EE488A1BBBB7EE008A38EE888AC2
:1017F800D6E90201FFF732FA07EE900AC7EE888AA7
:1018080021462846FFF77CFFB4EEE80AF1EE10FA0D
:101818001FD501201AE007EE903AB8EE678AB0EEBD
:10182800480AFFF759FF68EE808A38EE288AB9E738
:1018380007EE903AB8EE678AB0EE480AFFF74CFF19
:1018480068EE808A38EE288AD2E70120BDEC028B48
:1018580070BD0020FAE700BF304800084B4B1A68FB
:101868004B4BD31A202B00DC70472DE9F0418CB08C
:101878008046474C04F1200108A8FFF749FE42467C
:1018880008A92046FFF772FF90B1424B1B781BB99D
:10189800404B01221A7018E000233E4A13703B4A5D
:1018A80004F1200111603C4A13605360137269E02F
:1018B800384B1B7833B1364B00221A6100200021C7
:1018C800C3E90601334B00221A70314C2269089B88
:1018D80013440893A169E2690A9B5B180B9942EBD0
:1018E80001020A930B920023049300220023CDE9FE
:1018F800062301254034254B1B681B1B102B41DD9B
:10190800082D3FD82246A4F130016846FFF700FEB3
:10191800009F2368FA18089B9B1A0893029B039957
:10192800A268E0689A1841EB00000A9EB21A0B9E62
:1019380066EB00000A920B9054F8402C1744049A66
:101948001744049754F8382C54F8340C9B1841EB7E
:101958000001069AD318079A41EB020106930791F2
:10196800424608A904A8FFF701FF10B94034013521
:10197800C1E7064B1C60C5F109020021064828444E
:1019880001F070FD0CB0BDE8F08100BF040000203C
:1019980060050020500500205405002000000000CC
:1019A8002DE9F04387B007460E463F4B1B683B2B9B
:1019B8004CD83E4B1A683C4902A8FFF7A9FDDDE95F
:1019C8000401FEF763FD02460B46DFF8F080C8E924
:1019D800002333A3D3E90023FEF78EFD04460D460A
:1019E800C8E9004500220023DFF8CCC0CCE9002379
:1019F800DFF8C0C04FF0630E8CF800E0FFF70CF87A
:101A080098B3DDF808804046FEF7FCFC02460B461A
:101A1800DFF8A490C9E9002322462B46FEF796FE7C
:101A2800C9E90001B8F1040F1CD907EE908AB8EE95
:101A3800670AFFF751FE9FED1E7AC7EE007AFCEEAB
:101A4800E77ACDED017A9DF804300CE0164901F5EE
:101A58008073164A12689A4228BF1A4602A8FFF7EE
:101A680057FDACE76323134A1370134DD5E9000102
:101A7800FEF7DCFF00EE100AFFF782FD10EE104AB9
:101A880010EE100AFEF7E0FCC5E900013C60094BC6
:101A98001B78337007B0BDE8F08300BFAFF3008058
:101AA800000000E0E236EA3E600500200400002065
:101AB8000000484340050020380500204805002064
:101AC80003464FF6FF704A1ED2B289B110B413F81C
:101AD800011BC4B26140074C34F8111081EA102090
:101AE8001146013AD2B20029F1D15DF8044B704792
:101AF800704700BF684800088B5C43708B185B78A0
:101B08008370062B16D0102B28D0032B00D07047DB
:101B180011448A784FF0000362F30F23CA7862F306
:101B2800070383800A7962F30F234A7962F3070374
:101B3800C380704711448A784FF0000362F30F2383
:101B4800CA7862F3070383800A7962F30F234A791C
:101B580062F3070303810023037070471144CA78B6
:101B68004FF0000362F30F230A7962F307038380BF
:101B78004A7962F30F238A7962F30703C380CB792A
:101B8800C3700B7AC3734B7A83738B7A4373CB7AA4
:101B9800037301230370BAE730B589B000240394B6
:101BA80004940594069407940194204B1A6B42F010
:101BB80001021A631A6B02F001020192019A02945F
:101BC8001A6B42F002021A631B6B03F002030293C2
:101BD800029B174D01220221284600F0F9FC02233E
:101BE8000393012304930594069403A9284600F05F
:101BF800FDFB032303934FF488130493059403A96F
:101C08000C4800F0F3FB22462146062000F036FB84
:101C1800062000F06BFB22462146072000F02EFB31
:101C2800072000F063FB09B030BD00BF0038024058
:101C3800000002400004024030B583B00446002290
:101C48000221374800F0C4FC2378012B32D862788F
:101C5800344B1A70A2785A70E2789A70237893B944
:101C68006379304DEB7023792B7105212846FFF7F6
:101C780027FFC0F307236B71A871072229462A485A
:101C880001F0FDF844E0E37A264DEB70A37A2B715E
:101C9800637A6B71237AAB7107212846FFF710FF2F
:101CA800C0F307232B726872092229461E4801F0E7
:101CB800E6F82DE01D4D2846FFF7E6FB194C6B684A
:101CC800C3F307622270C3F307426270C3F30722AB
:101CD800A270E3702B7A23712846FFF7BBF98DEDCC
:101CE800010A019BC3F307626271C3F30742A27141
:101CF800C3F30722E27123722B7863720C4B5A7874
:101D0800A2721B78E3720C222146074801F0B7F84B
:101D180001220221024800F05BFC03B030BD00BF85
:101D2800000002406C0D0020F00B0020580D002030
:101D3800640D002010B5344B1A6834490B8892F8AA
:101D480000C0334800F803C001339BB20B80B3F5E1
:101D5800806F02D30B46002119801378652B13D0AE
:101D68002C4B1B781BB12C4B1B78012B17D02A4B03
:101D78001B780A2B1DD9244B284A1A600023264AAF
:101D88001370244A137012E0224B1B78002BE7D102
:101D9800204B01211970204B00211970E0E71278BF
:101DA8001F4B1A70E3E71D4A0021D1540133092B58
:101DB800F9DD184B1B781BB1174B1B78072B12D07A
:101DC800114815490B78026812F801CB134C04F836
:101DD80003C0026001330B7001220B4B19681148D4
:101DE80001F059FA10BD0E4B1B78032BE8D1064BB6
:101DF8000A4A1A600023074A1370074A13700A4BED
:101E080001221A70E8E700BF08000020EC07002054
:101E1800F0070020E8070020340C0020480C0020C0
:101E2800EA070020F00B0020480D002010B500F054
:101E380001FA104A138801339BB21380F92B00D89A
:101E480010BD0D4C2378013323700C4B1888FFF715
:101E580005FB2378032B05D80023064A1380074A7D
:101E68001380EDE7064805230370FFF7E5FE00221F
:101E78002270F1E7680D0020E9070020640D0020BA
:101E88004C0D002008B5012000F0B2FB024A13886F
:101E98000133138008BD00BF640D002008B502207F
:101EA80000F0A6FB08BD72B6FEE7000008B50A48B8
:101EB8000A4B03604FF41653436000238360C360EA
:101EC80003610C2242618361C36100F0A9FF00B97C
:101ED80008BDFFF7E8FF00BFF00B002000440040FA
:101EE80000B595B03022002108A801F0BBFA002304
:101EF8000393049305930693079301931F4A116C68
:101F080041F080511164126C02F080520192019AE2
:101F180002931B4A116841F480411160126802F46F
:101F280080420292029A0222089201210B9110210A
:101F38000C910E920F9308231093A82311931292D9
:101F48000423139308A800F061FB98B90F230393A7
:101F580002230493002305934FF4A05306934FF4F0
:101F680080530793052103A800F09EFD20B915B002
:101F78005DF804FBFFF797FFFFF795FF0038024075
:101F88000070004008B500F03BF9FFF7A9FFFFF724
:101F980003FEFFF78BFF01224149424801F07BF91C
:101FA8009FED418AF0EE480A3C209FED400AFFF77A
:101FB80037FAF0EE480A9FED3E0AFFF73FF812E0C5
:101FC8003C4B4FF47A729A800222DA7000221A701F
:101FD8003848FFF731FE4FF48071374800F0FEFAB9
:101FE800364B00221A70354B1B78002BFBD0344C33
:101FF80000222B492046FFF77FFDA378032BE7D16A
:102008002C4B65225A7003229A70A388082BDFD8BC
:1020180001A252F823F000BFC91F0008452000089C
:10202800D91F000855200008D91F00087320000890
:1020380085200008D91F0008972000081D4B192289
:102048009A800222DA7000221A70C1E71D4C2046DD
:10205800FFF71AFA2046FEF7FDFF164B83ED020A3A
:102068000422DA7001221A70B2E7124B4FF4C872D8
:102078009A800222DA7000221A70A9E70D4B4FF0FD
:102088007A529A600422DA7001221A70A0E7094B8A
:102098000D4A9A600422DA7001221A7098E700BF8C
:1020A800480C0020F00B0020000000009A995940CD
:1020B8006FD8B63A4C0D002000000240480D0020B1
:1020C800380C0020580D00200000A03F82B00021ED
:1020D80000910B4B5A6C42F480425A645A6C02F4D9
:1020E80080420092009A01911A6C42F080521A6460
:1020F8001B6C03F080530193019B02B0704700BF33
:102108000038024010B588B0002303930493059368
:10211800069307930268184B9A4201D008B010BD85
:102128000024019403F5FA331A6C42F400321A645D
:102138001A6C02F400320192019A02941A6B42F06E
:1021480001021A631B6B03F001030293029B0C2329
:10215800039302230493032306930723079303A9F6
:10216800064800F043F922462146262000F086F86A
:10217800262000F0BBF8D1E70044004000000240F0
:10218800FEE7FEE7FEE7FEE7FEE7704770477047A9
:1021980008B5024800F024FF08BD00BFF00B00207E
:1021A800034AD2F8883043F47003C2F88830704785
:1021B80000ED00E010B504460E4B18784FF47A7322
:1021C800B3FBF0F30C4A1068B0FBF3F000F09CF896
:1021D80068B90F2C01D901200AE0002221464FF0EE
:1021E800FF3000F04BF8054B1C60002000E0012098
:1021F80010BD00BF100000200C00002014000020BB
:1022080008B50B4B1A6842F400721A601A6842F457
:1022180080621A601A6842F480721A60032000F023
:102228001BF80F20FFF7C6FFFFF750FF002008BD7F
:10223800003C0240034A1168034B1B780B441360AF
:10224800704700BF7C0D002010000020014B18686B
:10225800704700BF7C0D0020074AD36823F4E06371
:102268001B041B0C000200F4E060034343F0BF634F
:1022780043F40033D360704700ED00E000B5194B1C
:10228800DB68C3F30223C3F1070CBCF1040F28BFBA
:102298004FF0040C03F1040EBEF1060F18D9033BEE
:1022A8004FF0FF3E0EFA0CFC21EA0C0199400EFAA1
:1022B80003F322EA0303194300280BDB0901C9B21F
:1022C80000F1604000F5614080F800135DF804FB00
:1022D8000023E5E700F00F000901C9B2024B1954C9
:1022E800F4E700BF00ED00E014ED00E0002807DB94
:1022F80000F01F02400901239340024A42F82030AF
:10230800704700BF00E100E00138B0F1807F0BD2D8
:102318004FF0E0235861054AF02182F8231000208D
:10232800986107221A6170470120704700ED00E0AC
:1023380070B50446866DFFF789FF94F83530DBB237
:10234800022B06D080236365002384F834300120F3
:1023580070BD05462268136823F0160313602268CF
:10236800536923F080035361236CE3B12268136837
:1023780023F0080313602268136823F00103136035
:1023880023681B6813F0010F11D0FFF75FFF431B91
:10239800052BF5D920236365032084F83500002335
:1023A80084F83430D4E7A36C002BDFD1E3E7E26D87
:1023B8003F239340B360012384F83530002084F82C
:1023C8003400C5E790F83530DBB2022B03D0802308
:1023D800436501207047052380F83530026813688B
:1023E80023F00103136000207047000000230F2B27
:1023F80000F2E48070B582B060E085685E00032476
:10240800B44025EA0405CC68B4402C438460456890
:1024180025EA02054C68C4F300129A402A43426038
:102428005AE0DC08083450F8246003F007029500ED
:102438000F22AA4026EA020E0A69AA4042EA0E02C0
:1024480040F824205CE0072200E0002202FA0EF2A5
:102458002A4302345A4D45F824205A4A14686FEA30
:102468000C0224EA0C054E6816F4803F01D04CEAB1
:102478000405544C2560646802EA04054E6816F4A5
:10248800003F01D04CEA04054E4C6560A46802EA9E
:1024980004054E6816F4801F01D04CEA0405494C27
:1024A800A560E46822404D6815F4001F01D04CEA8D
:1024B8000402444CE26001330F2B7DD801229A407C
:1024C8000C6804EA020C32EA0404F4D14C6804F003
:1024D8000304013C012C90D94A6802F00302032A44
:1024E80009D0C4685D000322AA4024EA02048A686D
:1024F800AA402243C2604A6802F00302022A90D02E
:1025080004684FEA430E032202FA0EF224EA020498
:102518004A6802F0030202FA0EF2224302604A6895
:1025280012F4403FC7D000220192274A546C44F469
:1025380080445464526C02F480420192019A9C08CF
:10254800A51C1F4A52F8255003F003024FEA820ED9
:102558000F2202FA0EF225EA02051C4A90423FF4C5
:1025680074AF02F5806290421AD002F58062904200
:1025780018D002F58062904216D002F5806290422F
:1025880014D002F58062904212D002F58062904227
:1025980010D002F5806290423FF455AF082255E70B
:1025A800012253E7022251E703224FE704224DE7B5
:1025B80005224BE7062249E702B070BD704700BF0D
:1025C80000380140003C0140003802400000024051
:1025D8000AB181617047090481617047436901EA62
:1025E800030221EA030141EA024181617047704711
:1025F80008B5054B5B69034200D108BD024B586121
:10260800FFF7F5FFF9E700BF003C0140002800F0A4
:10261800E08170B582B00446036813F0010F3BD027
:102628009F4B9B6803F00C03042B2CD09C4B9B689E
:1026380003F00C03082B21D06368B3F5803F4FD01B
:10264800B3F5A02F52D0964B1A6822F480321A6044
:102658001A6822F480221A606368002B50D0FFF7B2
:10266800F5FD05468E4B1B6813F4003F14D1FFF7A8
:10267800EDFD401B6428F5D90320B1E1884B5B6868
:1026880013F4800FD8D0864B1B6813F4003F03D097
:102698006368002B00F09F81236813F0020F54D069
:1026A8007F4B9B6813F00C0F3ED07D4B9B6803F06B
:1026B8000C03082B33D0E368002B68D0794B012238
:1026C8001A60FFF7C3FD0546754B1B6813F0020F30
:1026D80054D1FFF7BBFD401B0228F5D903207FE149
:1026E8006F4A136843F480331360B5E76C4B1A687C
:1026F80042F480221A601A6842F480321A60ABE70A
:10270800FFF7A4FD0546664B1B6813F4003FC3D0D2
:10271800FFF79CFD401B6428F5D9032060E1604B5E
:102728005B6813F4800FC6D15D4B1B6813F0020F72
:1027380003D0E368012B40F05081594A136823F015
:10274800F803216943EAC1031360236813F0080FF3
:1027580042D063696BB3534B0122C3F8802EFFF755
:1027680075FD05464E4B5B6F13F0020F34D1FFF732
:102778006DFD401B0228F5D9032031E1484A136852
:1027880023F0F803216943EAC1031360DDE7454BF1
:1027980000221A60FFF75AFD0546414B1B6813F0EB
:1027A800020FD2D0FFF752FD401B0228F5D90320B3
:1027B80016E13C4B0022C3F8802EFFF747FD054683
:1027C800374B5B6F13F0020F06D0FFF73FFD401B3E
:1027D8000228F5D9032003E1236813F0040F77D00A
:1027E8002F4B1B6C13F0805F33D1002301932C4BCC
:1027F8001A6C42F080521A641B6C03F080530193E8
:10280800019B0125284B1B6813F4807F23D0A36804
:10281800012B34D0052B38D0214B1A6F22F001023E
:102828001A671A6F22F004021A67A368002B3DD0BA
:10283800FFF70CFD06461A4B1B6F13F0020F46D12B
:10284800FFF704FD801B41F288339842F3D9032037
:10285800C6E00025D6E7144A136843F48073136072
:10286800FFF7F4FC0646104B1B6813F4807FCED1AB
:10287800FFF7ECFC801B0228F5D90320B0E0084ADA
:10288800136F43F001031367CFE7054B1A6F42F04C
:1028980004021A671A6F42F001021A67C5E700BFFF
:1028A800003802400000474200700040FFF7CEFCAD
:1028B8000646524B1B6F13F0020F08D0FFF7C6FCF9
:1028C800801B41F288339842F3D9032088E0EDB9A0
:1028D800A369002B00F08380484A926802F00C023A
:1028E800082A51D0022B17D0454B00221A66FFF751
:1028F800ADFC0446414B1B6813F0007F42D0FFF744
:10290800A5FC001B0228F5D9032069E03B4A136C9B
:1029180023F080531364DBE7394B00221A66FFF774
:1029280095FC0546354B1B6813F0007F06D0FFF772
:102938008DFC401B0228F5D9032051E0E369226A87
:102948001343626A43EA8213A26A5208013A43EACD
:102958000243E26A43EA0263284A5360284B012291
:102968001A66FFF773FC0446244B1B6813F0007FBC
:1029780006D1FFF76BFC001B0228F5D903202FE0D6
:1029880000202DE000202BE0012B2BD01B4B5B6897
:1029980003F48001E269914226D103F03F02216AE3
:1029A8008A4223D1616A47F6C0721A40B2EB811F8E
:1029B8001ED103F44031A26A5208013AB1EB024F2A
:1029C80018D103F07063E26AB3EB026F14D10020F0
:1029D80006E001207047012002E0012000E000200D
:1029E80002B070BD0120FBE70120F9E70120F7E7FD
:1029F8000120F5E70120F3E70120F1E70038024064
:102A08000000474208B5254B9B6803F00C03042BD4
:102A18003FD0082B3FD1214B5A6802F03F025B6838
:102A280013F4800F12D01D4B5968C1F388111C484C
:102A38000023A1FB0001FEF757F9184B5B68C3F3AD
:102A4800014301335B00B0FBF3F025E0134B5968F9
:102A5800C1F3881C4FEA4C11B1EB0C006EEB0E0E63
:102A68004FEA8E1343EA90638101091A63EB0E0360
:102A7800DB0043EA5173C90011EB0C0C43F100036E
:102A8800990200234FEA8C2041EA9C51FEF72CF969
:102A9800D3E7034800E0034808BD00BF0038024000
:102AA80040787D010024F400002800F09B8070B578
:102AB8000D4604464F4B1B6803F007038B4208D2B0
:102AC800CBB24C4A1370136803F007038B4240F0F3
:102AD8008B80236813F0020F17D013F0040F04D073
:102AE800454A936843F4E0539360236813F0080F52
:102AF80004D0414A936843F4604393603E4A936824
:102B080023F0F003A1680B439360236813F0010FCF
:102B180032D06368012B21D09A1E012A25D9364A62
:102B2800126812F0020F61D033498A6822F003025A
:102B380013438B60FFF78AFB06462F4B9B6803F015
:102B48000C036268B3EB820F16D0FFF77FFB801B84
:102B580041F288339842F0D9032042E0264A1268AD
:102B680012F4003FE0D101203BE0234A126812F042
:102B7800007FD9D1012034E01E4B1B6803F0070306
:102B8800AB4207D9EAB21B4B1A701B6803F0070364
:102B9800AB422DD1236813F0040F06D0164A936870
:102BA80023F4E053E1680B439360236813F0080FA4
:102BB80007D0114A936823F46043216943EAC103AB
:102BC8009360FFF71FFF0C4B9B68C3F303130B4A7B
:102BD800D35CD8400A4B18600A4B1868FFF7EAFA2A
:102BE800002070BD012070470120FAE70120F8E7B6
:102BF8000120F6E7003C024000380240684A00081D
:102C08000C00002014000020014B1868704700BF1A
:102C18000C00002008B5FFF7F7FF044B9B68C3F3CF
:102C28008223034AD35CD84008BD00BF0038024065
:102C3800784A000808B5FFF7E7FF044B9B68C3F321
:102C48004233034AD35CD84008BD00BF0038024075
:102C5800784A0008026802F10C0353E8003F23F4A5
:102C680090730C3242E800310029F3D1026802F176
:102C7800140353E8003F23F00103143242E8003103
:102C88000029F3D1036B012B05D0202380F83E30B7
:102C9800002303637047026802F10C0353E8003F06
:102CA80023F010030C3242E800310029F3D1ECE79D
:102CB80090F83D30DBB2212B01D0022070478368A9
:102CC800B3F5805F17D0036A5A1C02621A7803684A
:102CD8005A60C38C9BB2013B9BB2C3844BB9026858
:102CE800D36823F08003D3600268D36843F04003BD
:102CF800D360002070470369002BE4D1036A1B8866
:102D08000268C3F308035360036A02330362E0E70F
:102D180038B504460268136923F44053C1680B436D
:102D2800136183680269134342691343C2691A43F2
:102D38000168CB6823F4164323F00C031343CB60DC
:102D48000268536923F4407381690B435361036834
:102D5800314A934206D002F58062934202D0FFF7CF
:102D680059FF01E0FFF766FFE369B3F5004F29D08B
:102D78000021031849411B1841F10001C90041EA2B
:102D88005371DB00181863684FEA83024FEA9373A4
:102D980041F10001FDF7A8FF204DA5FB00325109C4
:102DA800642303FB11031B013233A5FB03235B09D7
:102DB80003F0F00202EB011203F00F032168134441
:102DC8008B6038BD0023021843EB0301121841F150
:102DD8000001C90041EA5271D200101841F1000106
:102DE800626892185B41FDF77FFF0C4DA5FB00322E
:102DF8005109642303FB1103DB003233A5FB0323D2
:102E08005B095A0002F4F87202EB011203F007039F
:102E1800216813448B60D4E7001001401F85EB51F3
:102E280058B310B5044690F83D300BB3242384F80A
:102E38003D302268D36823F40053D3602046FFF75F
:102E480067FF2268136923F490431361226853696A
:102E580023F02A0353612268D36843F40053D360F4
:102E680000202064202384F83D3084F83E3010BDD3
:102E780080F83C30FFF746F9D8E70120704790F812
:102E88003D30DBB2202B19D1D1B1DAB190F83C300A
:102E9800012B19D0012380F83C3001628284C2845E
:102EA80000230364212280F83D2080F83C3001682B
:102EB800CA6842F08002CA6018467047022070470C
:102EC800012070470120704702207047704708B5FD
:102ED8000168CA6822F04002CA60202280F83D20BA
:102EE800FFF7F4FF002008BD704708B5806B00238A
:102EF800C385C384FFF7F8FF08BD704790F83E30DC
:102F0800DBB2222B67D18368B3F5805F4DD0826A2C
:102F1800B3F5805F04D0002B54D10369002B51D145
:102F280003685B681370836A01338362C38D9BB245
:102F3800013B9BB2C385002B4FD100B583B002681B
:102F4800D36823F02003D3600268D36823F4807326
:102F5800D3600268536923F001035361202380F88A
:102F68003E30036B012B33D100230363026802F167
:102F78000C0353E8003F23F010030C3242E8003101
:102F88000029F3D103681A6812F0100F06D0002246
:102F980001921A6801925B680193019B818DFFF78A
:102FA800ACFF002003B05DF804FB0269002AAED133
:102FB800826A03685B68C3F308031380836A023379
:102FC8008362B3E703685B6803F07F031370AAE7C3
:102FD800FEF7B0FEE5E702207047002070470000CA
:102FE80030B583B0044602681368D068516913F09D
:102FF8000F0505D113F0200F02D010F0200F19D1C2
:103008002DB111F0010119D110F4907F16D1216B67
:1030180001297DD013F0800F03D010F0800F40F00D
:10302800158113F0400F03D010F0400F40F01281CB
:1030380003B030BD2046FFF761FFF9E713F0010F39
:1030480006D010F4807F03D0226C42F00102226483
:1030580013F0040F04D019B1226C42F0020222646A
:1030680013F0020F04D019B1226C42F0040222645A
:1030780013F0080F07D010F0200F00D119B1226CFF
:1030880042F008022264226C002AD1D013F0200FEB
:1030980002D010F0200F29D123685B6903F04003A8
:1030A800226C12F0080F00D163B32046FFF7D2FD5F
:1030B80023685B6913F0400F20D0226802F11403E3
:1030C80053E8003F23F04003143242E8003100295E
:1030D800F3D1A36B73B1614A1A65A06BFFF772F95C
:1030E8000028A5D0A06B036D9847A1E72046FFF7FD
:1030F80005FFD1E72046FFF7F7FE99E72046FFF7DF
:10310800F3FE95E72046FFF7EFFE002323648FE7E1
:1031180013F0100F3FF47EAF10F0100F3FF47AAFAA
:10312800002301931368019353680193019B53692A
:1031380013F0400F50D0A26B13685B689BB2002B52
:103148003FF476AFA18D99427FF672AFE385D369DC
:10315800B3F5807F37D0226802F10C0353E8003FB3
:1031680023F480730C3242E800310029F3D122683D
:1031780002F1140353E8003F23F00103143242E83C
:1031880000310029F3D1226802F1140353E8003F0B
:1031980023F04003143242E800310029F3D1202300
:1031A80084F83E3000232363226802F10C0353E8BD
:1031B800003F23F010030C3242E800310029F3D11C
:1031C800A06BFFF7B5F8A18DE38D9BB2C91A89B240
:1031D8002046FFF792FE2BE7A18DE38D9BB2C91A1B
:1031E80089B2E38D9BB2002B3FF422AF00293FF454
:1031F8001FAF226802F10C0353E8003F23F49073D9
:103208000C3242E800300028F3D1226802F114039E
:1032180053E8003F23F00103143242E8003000284D
:10322800F3D1202384F83E3000232363226802F17F
:103238000C0353E8003F23F010030C3242E800303F
:103248000028F3D12046FFF758FEF1E62046FFF7A5
:103258002FFDEDE62046FFF73AFEE9E6F32E0008DB
:10326800034681628285C28500201864222283F881
:103278003E2083F83C001968CA6842F48072CA602C
:1032880019684A6942F001024A611A68D36843F032
:103298002003D360704708B590F83E30DBB2202B8E
:1032A8000DD171B17AB190F83C30012B0DD00123CA
:1032B80080F83C3000230363FFF7D2FF00E00220D0
:1032C80008BD0120FCE70120FAE70220F8E700002A
:1032D800DFF834D00D480E490E4A002302E0D458D6
:1032E800C4500433C4188C42F9D30B4A0B4C002346
:1032F80001E013600432A242FBD3FEF751FF00F055
:1033080011F8FEF73FFE7047000002200000002081
:103318004C040020644B000850040020880D002055
:10332800FEE7000070B50D4E0D4D761BB61006D0A9
:10333800002455F8043B01349847A642F9D1094EB8
:10334800094D761B01F072F9B61006D0002455F825
:10335800043B01349847A642F9D170BD584B000888
:10336800584B0008604B0008584B000888420DD99C
:103378008B1883420AD900EB020CBAB1624613F8E3
:1033880001CD02F801CD9942F9D170470F2A0ED824
:10339800034602F1FF3C4AB10CF1010C013B8C449D
:1033A80011F8012B03F8012F6145F9D1704740EA64
:1033B80001039B0750D1A2F1100370B501F1200C55
:1033C80023F00F0501F1100E00F11004AC441B09A5
:1033D8005EF8105C44F8105C5EF80C5C44F80C5C19
:1033E8005EF8085C44F8085C5EF8045C44F8045C29
:1033F8000EF1100EE64504F11004E9D1013312F084
:103408000C0F01EB031102F00F0400EB031327D09C
:10341800043C24F003064FEA940C1E441C1F8E46FD
:103428005EF8045B44F8045FB442F9D10CF101047E
:1034380002F0030203EB840301EB840102F1FF3C79
:103448004AB10CF1010C013B8C4411F8012B03F833
:10345800012F6145F9D170BD02F1FF3C03469BE79E
:103468002246EBE7830730B548D0541E002A3FD0E8
:10347800CAB2034601E0013C3AD303F8012B9D0789
:10348800F9D1032C2DD9CDB245EA05250F2C45EAF3
:10349800054536D9A4F1100222F00F0C03F1200ED5
:1034A800E6444FEA121C03F1100242E9045542E9CE
:1034B800025510327245F8D10CF1010214F00C0FCC
:1034C80003EB021204F00F0C13D0ACF1040323F049
:1034D80003030433134442F8045B9342FBD10CF01A
:1034E80003042CB1CAB21C4403F8012B9C42FBD143
:1034F80030BD64461346002CF4D1F9E70346144660
:10350800BFE71A46A446E0E7024B13B1024800F0B1
:103518001FB87047000000002535000838B5084B73
:10352800084D5B1B9C1007D0043B1D44013C55F81B
:1035380004399847002CF9D1BDE8384001F07CB82F
:10354800644B0008604B0008704700BF704700BF1D
:10355800002301461A46184600F000B82DE9F04746
:10356800DFF880A00646DAF8000098460F46914634
:10357800FFF7EAFF1A4B1B68D3F8484124B3656884
:103588001F2D26DC5EB96B1C0235DAF8000063607B
:1035980044F82570FFF7DAFF0020BDE8F08704EB58
:1035A80085010123C1F88890D4F88821AB401A43DB
:1035B800022EC4F88821C1F80881E4D1D4F88C21FE
:1035C8001343C4F88C31DEE703F5A674C3F8484109
:1035D800D5E7DAF80000FFF7B9FF4FF0FF30DCE776
:1035E800804A000848040020FEE700BF2DE9F047A4
:1035F800089D04468E46002B4DD18A42944669D9CF
:10360800B2FA82F252B101FA02F3C2F1200120FAB1
:1036180001F10CFA02FC41EA030E94404FEA1C48FF
:10362800210CBEFBF8F61FFA8CF708FB16E341EAFB
:10363800034306FB07F199420AD91CEB030306F181
:10364800FF3080F01F81994240F21C81023E6344A2
:103658005B1AA4B2B3FBF8F008FB103344EA034446
:1036680000FB07F7A7420AD91CEB040400F1FF335B
:1036780080F00A81A74240F207816444023840EA98
:103688000640E41B00261DB1D4400023C5E90043D1
:103698003146BDE8F0878B4209D9002D00F0EF8054
:1036A8000026C5E9000130463146BDE8F087B3FA87
:1036B80083F6002E4AD18B4202D3824200F2F9806F
:1036C800841A61EB030301209E46002DE0D0C5E972
:1036D800004EDDE702B9FFDEB2FA82F2002A40F0BE
:1036E8009280A1EB0C014FEA1C471FFA8CFE0126C1
:1036F800200CB1FBF7F307FB131140EA01410EFB65
:1037080003F0884208D91CEB010103F1FF3802D20B
:10371800884200F2CB804346091AA4B2B1FBF7F005
:1037280007FB101144EA01440EFB00FEA64508D928
:103738001CEB040400F1FF3102D2A64500F2BB8065
:103748000846A4EB0E0440EA03409CE7C6F12007B4
:10375800B34022FA07FC4CEA030C20FA07F401FAFA
:1037680006F31C43F9404FEA1C4900FA06F3B1FB83
:10377800F9F8200C1FFA8CFE09FB181140EA0141E8
:1037880008FB0EF0884202FA06F20BD91CEB010185
:1037980008F1FF3A80F08880884240F28580A8F1DD
:1037A80002086144091AA4B2B1FBF9F009FB10112F
:1037B80044EA014100FB0EFE8E4508D91CEB0101CD
:1037C80000F1FF346CD28E456AD90238614440EA70
:1037D8000840A0FB0294A1EB0E01A142C846A646F0
:1037E80056D353D05DB1B3EB080261EB0E0101FA79
:1037F80007F722FA06F3F1401F43C5E900710026D6
:103808003146BDE8F087C2F12003D8400CFA02FC2B
:1038180021FA03F3914001434FEA1C471FFA8CFE3B
:10382800B3FBF7F007FB10360B0C43EA064300FB2B
:103838000EF69E4204FA02F408D91CEB030300F1C9
:10384800FF382FD29E422DD9023863449B1B89B280
:10385800B3FBF7F607FB163341EA034106FB0EF309
:103868008B4208D91CEB010106F1FF3816D28B42B6
:1038780014D9023E6144C91A46EA004638E72E4682
:10388800284605E70646E3E61846F8E64B45A9D27A
:10389800B9EB020864EB0C0E0138A3E74646EAE7E9
:1038A800204694E74046D1E7D0467BE7023B614497
:1038B80032E7304609E76444023842E703685A00B1
:1038C8004CBF43F0004323F000431844704700BF47
:1038D8002DE9F84329B34F1E044615463E464FF0DE
:1038E800000808EB060101EBD171491004EBC1098E
:1038F8004846FFF7E3FF0346C80008308F422044DC
:1039080009D0AB4209D8FFF7D9FF0138A8420AD23B
:1039180001F10108E5E7AB4205D9884501D04E1E03
:10392800DFE74FF000094846BDE8F883012807D0D3
:10393800022807D0044B00280CBF18460020704707
:103948000248704702487047F93F000801400008E4
:103958000940000830B5234B83B004468D1E3BB3A5
:1039680001A92846AFF30080E8B101992A46FFF77C
:10397800AFFF0146B8B1FFF7A1FF4B68A064012B68
:103988002CD0002B01F1040024DBFFF797FF002364
:10399800C4E913030368002B11DBFFF78FFF2061D5
:1039A800002003B030BD00230920236103B030BDDF
:1039B8000D4B0E49C91AC91018460191D6E7C3F331
:1039C8000360FFF7B3FF0028206114BF002009201F
:1039D80003B030BD0123C4E91303DBE700232361EF
:1039E8000520DEE700000000904A0008584B000858
:1039F8000368DA0710B5044606D49B0700F14800AF
:103A080009D5FDF79DF92368590709D51A070ED579
:103A1800DB0613D510BDFDF78BF923685907F5D4DC
:103A280004F1D000FDF794F923681A07F0D404F5DF
:103A3800A870FDF795F92368DB06EBD404F5E87068
:103A4800BDE81040FDF7D0B90346006800B118443E
:103A5800704700BF704700BF70B504460E46316C12
:103A68002046FFF777FF054688B9326C6261236903
:103A780032462146012098470828F0D0072806D169
:103A88002846316CFFF7E6FF301DFDF745F900F0D9
:103A98006FFD00BF2DE9F0470D1DD0F80C80D0F860
:103AA8001890074614460FCDADF5727D0DF10C0C3C
:103AB800ACE80F000FCDACE80F000FCDACE80F005D
:103AC80095E80F0002AE4FF0000E8CE80F00C6F824
:103AD80000E020E0336C7B614FF4F07231467AA845
:103AE800FDF7F2F93B697AAA394650469847889B10
:103AF80073642146CDE9006905463B463A460120F4
:103B0800C0470446E0B94FF4F0727AA93046FDF791
:103B1800DBF9082D1AD1316C3846FFF71BFF093441
:103B28005FFA84FA05460028D4D0B36B73643A462A
:103B3800CDE900693B464AF010010120C04700B1B9
:103B4800092528460DF5727DBDE8F087072DF7D1C8
:103B58002046316CFFF77EFF03A8FDF7DDF800BFB4
:103B6800F0B5CB6B0B6401F1040C0E460546BCE8BE
:103B78000F00F9B001AC0FC4BCE80F000FC4BCE8DB
:103B88000F000FC49CE80F004FF0FF3784E80F00C8
:103B9800009706E02B696A46294698470828044694
:103BA80008D110992846FFF7D5FE0028F2D0092041
:103BB80079B0F0BD6846FFF71BFF062CF7D13146F8
:103BC8002846FFF749FF00BFC160D96B82611964BD
:103BD80000221946FFF75EBF70B5C66843690B64DB
:103BE800AEB903690A4604460D46014602209847C5
:103BF800072805D008280FD129462046FFF72CFFB3
:103C08003046296CFFF726FF281DFDF785F80122AD
:103C1800FFF740FF00F0ACFC00F0AAFCC26822B13C
:103C2800CA6B0A640022FFF735BFFFF799BF00BFD0
:103C3800012912D009D873B90F2A0CD800EB8202D7
:103C480018465368009A136070470339012994BFD6
:103C5800012002207047022070470846704700BFC5
:103C680000B585B00A46002303A900911946FFF75D
:103C7800DFFF039805B05DF804FB00BF012912D0EF
:103C880009D873B90F2A0CD800EB8200009A126881
:103C98004260184670470339012994BF0120022069
:103CA8007047022070470846704700BF10B584B0BF
:103CB800002303AC039200940A461946FFF7DEFF7F
:103CC80004B010BD70B5D36B136402F1040C054643
:103CD8000C46BCE80F00ADF50E7D0DF15C0EAEE8AC
:103CE8000F00BCE80F00AEE80F00BCE80F00AEE81C
:103CF8000F009CE80F004FF0FF368EE80F00169675
:103D080010E0FFF7D3FF214616A8A847034616AAD6
:103D18006946082083B9049B9847052806460CD0B5
:103D2800092809D026996846FFF714FE03466A4613
:103D38000C2116A8002BE4D0092616A8FFF758FE78
:103D480030460DF50E7D70BD2DE9F04FCC6C89B075
:103D58001E4654F8043B06940D46174600F0030827
:103D6800002E79D01A0C1B0405938DF81D20022310
:103D7800D2B204EB82048DF81C302B6DB8F1020F1F
:103D880008BFAC6B13F001030CD005A9384600F04E
:103D980099FA18B9082009B0BDE8F08F092009B0D0
:103DA800BDE8F08FD4F800A0BAF1000FEDD0019370
:103DB80000F008030293022E4AD0B4F800A0B4F829
:103DC80002900434AB6C29F0010B0F2138469B4458
:103DD800FFF746FF834539D82AF001039B44834502
:103DE80094BF002001204FEA490303F002030AF0C0
:103DF800010A43EA0A03012B49D0022B32D0002BD7
:103E0800CCD1B8F1000F02D0002840F0CD800434A6
:103E1800D4F800A0BAF1000FCDD105A9384600F0BA
:103E280051FA0028BAD1019B002BB3D00F21384694
:103E3800FFF716FF0E2102463846FFF737FF3846D0
:103E48006A4A0F21FFF732FF0720A8E70020CAE7D8
:103E5800D4F804900834B5E71B0205930323ADF8A2
:103E68001C308AE7236823F0004BB8F1000F45D1D6
:103E780028B1029A002A5CD0BBF1000F74D0002B45
:103E880000DA04340BF1010B04EB8B04C0E7B8F142
:103E9800000F19D1B0B163682268991C4FEAD27239
:103EA8003FF47CAF05F158010133049100F0908094
:103EB800201DFFF7C9FD04AB01462846AFF300807B
:103EC80000285BD10834A3E70D213846D5F82090A7
:103ED800FFF7C6FE8145F5D1AB6A9C42F2D1204678
:103EE800FFF7ECFC0F2102463846FFF7DFFE3846A5
:103EF8002A460021FFF7DAFE072050E70D21384651
:103F0800D5F82090FFF7ACFE814501D02368B6E7CD
:103F1800AB6A9C42FAD104230022C5E90B23E318BB
:103F2800C5F828B06B632368002B59DB0123019384
:103F3800A8E705F15803CDF80C8004F1040AB0464F
:103F480091461E460EE050460496FFF77DFD00227E
:103F5800014604AB284609F101090AF1040AAFF346
:103F68000080E0B9D945EED10D213846FFF778FE3B
:103F7800049BAC62C5E90803062010E781460D21C1
:103F88003846FFF76DFEB9F1020F286225D12B469E
:103F9800049A43F82C2F6B62AC620620FFE6464673
:103FA8002368DDF80C806AE72046FFF787FC0434B5
:103FB8000246AC6328461446AFF3008000283FF45D
:103FC800EDAE384622460F21FFF770FE0720E6E6E1
:103FD8000D213846FFF744FE2862049B6B62DBE73D
:103FE8000BF1010004EB80007AE700BF000000003D
:103FF8000023FFF7A9BE00BF0123FFF7A5BE00BF3E
:104008000223FFF7A1BE00BF2DE9F0430646C3B067
:1040180015461C46042900F2BF80DFE801F09E57D0
:10402800BD2D0300002C40F0B780102A00F2B480A8
:104038000368D80600F1F98020AF3846FCF7DEFEA9
:10404800B46B394600234FF0010C0CFA03F22A42F4
:10405800204603F1010303D050F8042B0A600446FC
:10406800042B01F10401F0D13846B463FCF7BCFE1F
:10407800002043B0BDE8F083032C40F08D8094B25B
:1040880004EB1243102B4FEA124500F285800368B7
:104098001F0700F1D28020AF3846FCF783FEB26BD1
:1040A80007EBC50154B10B46D01A01EBC401E4007B
:1040B8001D5843F8045B8B42FAD122443846B26358
:1040C800FCF74EFE002043B0BDE8F083012C4FEA18
:1040D800124895B25CD0052C5ED108EB0509B9F100
:1040E800200F59D8B8F10F0F79D9A946002D40F003
:1040F8008A80B36B6DB320AF4FF0000907EBC80798
:10410800043F03EBC50553F8041B47F8041FAB42F3
:10411800F9D1B9F1000F0FD06F464146102938BFC9
:10412800102107EBC101843903EBC90553F8040BCF
:1041380041F8040FAB42F9D1012C00F08680B8F1A8
:104148000F0FB56347D9B9F1000F02D06846FCF7E5
:10415800FFFD002043B0BDE8F083ECB9806B234637
:104168001FFA82FC0124371D04FA03F212EA0C0F2D
:10417800014604D051F8042B47F8232008460133A0
:10418800102BF1D115F40055E3D1B063284604E0B3
:1041980008EB0503102B03D9022043B0BDE8F083D8
:1041A800B8F10F0FF8D83368DA0706D5304623F090
:1041B800030340F8483BFCF7BFFD20AF3846FCF747
:1041C800BBFDB36B002D97D11D460435B56338464A
:1041D800FCF7AEFDBDE720A8FCF7B2FDB3E7B9F1E7
:1041E800100F40D9A9F110093368D90708D523F071
:1041F8000103304643F0020340F8483BFCF7A4FDB6
:10420800B9F1000F32D033685A0720D4B8F10F0F34
:1042180025D96F463846C8F11005FCF79DFD002DDD
:10422800B36B7FF77AAF20AF68E723F010033360F2
:1042380006F5E870FCF7E2FDFEE623F008030360EC
:1042480000F5A870FCF7AEFD25E720AFBDE73046C6
:1042580023F0040340F8D03BFCF77EFDD6E720A806
:10426800FCF772FDD5E74FF00009BDE7B8F10F0F75
:104278003FF63FAF20AF3846FCF766FDB36B002D25
:104288007FF43AAF3846FCF75BFD62E7027A0346F3
:104298007AB9427AA2B14168013A10B44272086808
:1042A80003220C1D1A7202025C60000E10BC1A6018
:1042B80070470068013A1A7202021A60000E7047CD
:1042C800B02070472DE9F043054685B00E464FF003
:1042D80000083046FFF7DAFFB028044600F0BA803D
:1042E800070620D500F0F003802B4DD0902B36D058
:1042F800A02B60D0B02B74D0C02B00F08B8000F0C6
:10430800F803D02B0BD100F007020132052342F449
:10431800002201212846FFF777FE0028D9D009207E
:1043280005B0BDE8F0838300DBB21F1D0DF10C0959
:1043380000231946CDF800900D222846FFF778FC97
:10434800039BCDF8009060064CBFDF1BFF180023CD
:104358000D22194628460397FFF790FCB9E700F0AD
:104368000D030D2BDBD003AF002300F00F0219461D
:1043780000972846FFF75CFC002300970D2219469A
:104388002846FFF77BFCA4E73046FFF77FFF2402AF
:104398002043B0F5004FC2D004010023A2B2194651
:1043A8002846FFF731FE0028B9D114F4004F18BF92
:1043B8004FF001088DE7C24302F007034FF47F6214
:1043C8001A41010702F47F624FF0000348BF42F42C
:1043D800804219462846FFF717FE00283FF479AFB8
:1043E8009DE7B1283BD0B22800F09380B32841D094
:1043F80000F0FC03B42B92D000F007020132012335
:1044080042F4002219462846FFF7FEFD00283FF433
:1044180060AF84E7C6284AD0C72854D000F0F80314
:10442800C02B63D0C82868D0C9287FF478AF30463D
:10443800FFF72CFF020300F00F0002F47022013096
:104448000243012105232846FFF7DEFD00283FF43B
:1044580040AF64E7B8F1000F18D0002060E730469D
:10446800FFF714FF024600283FF459AF10F0F0039D
:10447800C8D054E73046FFF709FF020300F00F03E6
:10448800013302F470221A430123BBE703AC43460D
:104498000E22414600942846FFF7CAFB0094434683
:1044A8000F2241462846FFF7E9FB404638E73046E9
:1044B800FFF7ECFE020300F00F03013302F4702251
:1044C8001A4303239EE73046FFF7E0FE0246002822
:1044D8003FF425AF10F0F0037FF421AF0421284604
:1044E800FFF792FD00283FF4F4AE18E700F00F0242
:1044F8000132032342F4202284E73046FFF7C6FE48
:1045080000F0F00200F00F031032013343EA0232E8
:1045180097E700230DF10C090D221946CDF80090FC
:104528002846FFF785FB3046FFF7B0FE02064FF03E
:1045380002040CD5039B00F07F00A04018440390B0
:104548003046FFF7A3FE030604F10704F2D4039BE9
:10455800CDF8009000F07F02A24003F501731A44E1
:104568000023039219460D222846FFF787FBB0E681
:1045780008B5062000F004F80120FFF735F800BF61
:1045880038B5154B1F281D6820D8D5F8DC220446FD
:1045980062B152F820304BB1012B15D0591C0FD005
:1045A800002542F820509847284638BD284600F094
:1045B8002BF8224601462846BDE8384000F00EB8E0
:1045C80016232B60012038BD002038BD16232B6030
:1045D8004FF0FF3038BD00BF1800002070B50C4602
:1045E800084D03460026204611461C462E6000F062
:1045F80015F8431C00D070BD2B68002BFBD023603E
:1046080070BD00BF840D002000F000B8024B582296
:104618001A604FF0FF307047840D0020024B58227B
:104628001A604FF0FF307047840D0020F8B500BFC6
:10463800F8BC08BC9E467047F8B500BFF8BC08BC7B
:044648009E467047D3
:10464C00984C4B41B8AF894071AC4B408AB031406B
:10465C00B6842440029A1C409B5517408195134008
:10466C00E3C7104031990E402FDD0C4076710B40A2
:10467C00FE430A4067440940DC68084071AC0740BF
:10468C00F706074025750640B6F305400681054040
:10469C002B180540C7BA044095650440F016044039
:1046AC00D9CE0340508D0340B1500340FC18034059
:1046BC008FE402400BB5024029ED014029ED014089
:1046CC0029ED014029ED014029ED014029ED014082
:1046DC0029ED014029ED014029ED0140B45901407B
:1046EC00B4590140B4590140B4590140B459014086
:1046FC0004E7004004E7004004E7004004E7004002
:10470C0004E70040E78C0040E78C0040E78C004059
:10471C00E78C0040E78C0040894100408941004013
:10472C00894100408941004089410040EA04004031
:10473C00EA040040EA040040EA040040EA040040B5
:10474C00EA040040EA040040EA040040EA040040A5
:10475C00EA0400408048FF3F8048FF3F8048FF3F0D
:10476C008048FF3F8048FF3F8048FF3F8048FF3F25
:10477C008048FF3F8048FF3F8048FF3F99BBFE3F8A
:10478C0099BBFE3F99BBFE3F99BBFE3F99BBFE3FD9
:10479C0099BBFE3F99BBFE3F99BBFE3F99BBFE3FC9
:1047AC0099BBFE3F304CFE3F304CFE3F304CFE3F41
:1047BC00304CFE3F304CFE3F304CFE3F304CFE3F09
:1047CC00304CFE3F304CFE3F304CFE3FB6F3FD3FCD
:1047DC00B6F3FD3FB6F3FD3FB6F3FD3FB6F3FD3F39
:1047EC00B6F3FD3FB6F3FD3FB6F3FD3FB6F3FD3F29
:1047FC00B6F3FD3F9FABFD3F9FABFD3F9FABFD3F36
:10480C009FABFD3F9FABFD3F9FABFD3F9FABFD3F84
:10481C009FABFD3F9FABFD3F9FABFD3F5D6DFD3FF4
:10482C000000803F06050504040404040207060585
:10483C00050404040403080706050404040403091E
:10484C000807060504040404090807060504040403
:10485C00040A090807060505050500000000C1C08B
:10486C0081C1400101C3C003800241C201C6C00620
:10487C00800741C70005C1C581C4400401CCC00CF0
:10488C00800D41CD000FC1CF81CE400E000AC1CAB0
:10489C0081CB400B01C9C009800841C801D8C018A0
:1048AC00801941D9001BC1DB81DA401A001EC1DE20
:1048BC0081DF401F01DDC01D801C41DC0014C1D410
:1048CC0081D5401501D7C017801641D601D2C01230
:1048DC00801341D30011C1D181D0401001F0C03000
:1048EC00803141F10033C1F381F240320036C1F620
:1048FC0081F7403701F5C035803441F4003CC1FCF0
:10490C0081FD403D01FFC03F803E41FE01FAC03AAF
:10491C00803B41FB0039C1F981F840380028C1E8DF
:10492C0081E9402901EBC02B802A41EA01EEC02E1F
:10493C00802F41EF002DC1ED81EC402C01E4C0240F
:10494C00802541E50027C1E781E640260022C1E22F
:10495C0081E3402301E1C021802041E001A0C0603F
:10496C00806141A10063C1A381A240620066C1A61F
:10497C0081A7406701A5C065806441A4006CC1ACEF
:10498C0081AD406D01AFC06F806E41AE01AAC06AAF
:10499C00806B41AB0069C1A981A840680078C1B89F
:1049AC0081B9407901BBC07B807A41BA01BEC07E1F
:1049BC00807F41BF007DC1BD81BC407C01B4C0740F
:1049CC00807541B50077C1B781B640760072C1B22F
:1049DC0081B3407301B1C071807041B00050C1907F
:1049EC00819140510193C053805241920196C0561F
:1049FC00805741970055C19581944054019CC05CEF
:104A0C00805D419D005FC19F819E405E005AC19AAE
:104A1C00819B405B0199C059805841980188C048DE
:104A2C0080494189004BC18B818A404A004EC18E1E
:104A3C00818F404F018DC04D804C418C0044C1840E
:104A4C00818540450187C047804641860182C0422E
:104A5C00804341830041C1818180404000000000BF
:104A6C000000000001020304060708090000000012
:084A7C000102030420000020E8
:0C4A840008B10181B0B000840000000007
:104A90009CE8FF7FB0B0AA80DCE8FF7F0100000047
:104AA00084EAFF7FA908B180A8EAFF7F0100000027
:104AB000B4EAFF7FB0B0AE8038EBFF7F01000000AA
:104AC0009CEEFF7FB0A9028030EFFF7FB0B0A880DE
:104AD00080EFFF7F0100000088EFFF7FB0B0AA8069
:104AE000BCEFFF7FAE71B28080F0FF7FAB3F3880BC
:104AF000E0F0FF7F01000000E8F0FF7FB0B0AA8087
:104B000024F1FF7F01000000C4F1FF7FAA0DB280F5
:104B100040F2FF7FB0AF0880E0F4FF7F01000000AB
:104B2000F0F4FF7FAD3F02806CF7FF7F01000000D3
:104B30009CF7FF7FB0AD048040FAFF7F48FFFF7F06
:104B400048FAFF7FA908B1809CFAFF7FB0B0AA8025
:084B5000C0FAFF7F0100000024
:084B58001135000829100008C6
:044B60000510000834
:104B64006FD8B63A60050020480C00200024F400F9
:104B740001000000100000002000002000000000E0
:104B8400000000000C03002074030020DC0300205C
:104B94000000000000000000000000000000000011
:104BA4000000000000000000000000000000000001
:104BB40000000000000000000000000000000000F1
:104BC40000000000000000000000000000000000E1
:104BD40000000000000000000000000000000000D1
:104BE40000000000000000000000000000000000C1
:104BF40000000000000000000000000000000000B1
:104C040000000000000000000000000000000000A0
:104C14000000000000000000000000000000000090
:104C2400000000000000000001000000000000007F
:104C34000E33CDAB34126DE6ECDE05000B00000044
:104C44000000000000000000000000000000000060
:104C54000000000000000000000000000000000050
:104C64000000000000000000000000000000000040
:104C74000000000000000000000000000000000030
:0C4FA4000000000000000000800D002054
:04000005080032D9E4
:00000001FF
